S01300006176725F747261696E30312E73726563EA
S11300000C942A000C9434000C9434000C943400A6
S11300100C9434000C9434000C9434000C9434008C
S11300200C9434000C9434000C9434000C9434007C
S11300300C9434000C9434000C9434000C9434006C
S11300400C9434000C9434000C9434000C9434005C
S11300500C94340011241FBECFE5D4E0DEBFCDBF25
S11300600E9436000C9457000C9400008FEF8ABB5A
S113007087BBE0E050E061E070E08E2F952F4BB33A
S11300809B01082E02C0220F331F0A94E2F7242793
S11300902BBB2FE936E841E0215030404040E1F7E6
S11300A000C0000001968830910549F7E6CFF89426
S10500B0FFCF7C
S9030000FC
