:100000000C942A000C9447000C9447000C94470071
:100010000C9447000C9447000C9447000C94470044
:100020000C9447000C9447000C9447000C94470034
:100030000C9447000C9447000C9447000C94470024
:100040000C9447000C9447000C9447000C94470014
:100050000C94470011241FBECFE5D4E0DEBFCDBF16
:1000600010E0A0E6B0E0E6EDF4E002C005900D92ED
:10007000AC36B107D9F720E0ACE6B0E001C01D9284
:10008000A437B207E1F70E9400010C9469020C94B6
:10009000000028E02AB926E820BD23E329B9FC01A5
:1000A0009191992321F09CB95D9BFECFF9CF2FE967
:1000B00086E891E0215080409040E1F700C00000C8
:1000C000089510926D0010926C0020E030E041E045
:1000D00050E098B3BA010090640002C0660F771F29
:1000E0000A94E2F7862F8095892388BB89EF90E0F8
:1000F0000197F1F700C0000086B390E00090600027
:1001000002C0959587950A94E2F780FF11C060912F
:100110006C0070916D00CA01022E02C0880F991FF9
:100120000A94E2F7862B972B90936D0080936C00D6
:1001300068B3CA010090640002C0880F991F0A9436
:10014000E2F7862B88BB2F5F3F4F2830310509F639
:1001500080916C0090916D0008950F931F93CF9341
:10016000DF9398B302E610E0C1E0D0E09E01F80111
:10017000008002C0220F331F0A94E2F7822F80957D
:10018000892388BB10927300109272000E94610054
:1001900010927200809373000E946100209172009F
:1001A00030917300822B932B909373008093720095
:1001B00088B3F801008002C0CC0FDD1F0A94E2F77B
:1001C000C82BC8BB609172007091730083E0759575
:1001D00067958A95E1F77093730060937200072E1C
:1001E000000C880B990B0E94700120E030E040E881
:1001F0005EE30E94D401DF91CF911F910F9108958A
:1002000017BA27B381E090E0AC010090640002C00F
:10021000440F551F0A94E2F70090620002C0880F55
:10022000991F0A94E2F7842B822B87BB8FEF8ABB3E
:1002300084BB86E690E00E9449002FE986E891E0C1
:10024000215080409040E1F700C000000E94AD00C6
:1002500060936E0070936F008093700090937100B4
:100260000E943F016BBB60916E0070916F008091A6
:100270007000909171000E943F0165BBDECF0E942B
:10028000B30188F09F5798F0B92F9927B751B0F074
:10029000E1F0660F771F881F991F1AF0BA95C9F70A
:1002A00014C0B13091F00E94CD01B1E008950C94DA
:1002B000CD01672F782F8827B85F39F0B93FCCF38D
:1002C000869577956795B395D9F73EF49095809587
:1002D000709561957F4F8F4F9F4F0895E89409C0A7
:1002E00097FB3EF490958095709561957F4F8F4F69
:1002F0009F4F9923A9F0F92F96E9BB279395F6957F
:10030000879577956795B795F111F8CFFAF4BB0FFC
:1003100011F460FF1BC06F5F7F4F8F4F9F4F16C060
:10032000882311F096E911C0772321F09EE8872FEA
:10033000762F05C0662371F096E8862F70E060E0A6
:100340002AF09A95660F771F881FDAF7880F96951F
:10035000879597F9089557FD9058440F551F59F008
:100360005F3F71F04795880F97FB991F61F09F3FA2
:1003700079F087950895121613061406551FF2CFCB
:100380004695F1DF08C0161617061806991FF1CF1B
:1003900086957105610508940895E894BB27662742
:1003A0007727CB0197F908950E94E7010C94580232
:1003B0000E944A0238F00E94510220F0952311F069
:1003C0000C9441020C94470211240C94CE010E941B
:1003D000AB0170F3959FC1F3950F50E0551F629FDD
:1003E000F001729FBB27F00DB11D639FAA27F00D8E
:1003F000B11DAA1F649F6627B00DA11D661F829FB5
:100400002227B00DA11D621F739FB00DA11D621F99
:10041000839FA00D611D221F749F3327A00D611DB6
:10042000231F849F600D211D822F762F6A2F112498
:100430009F5750409AF0F1F088234AF0EE0FFF1FCB
:10044000BB1F661F771F881F91505040A9F79E3F22
:10045000510580F00C9441020C94CE015F3FE4F30F
:10046000983ED4F3869577956795B795F795E79578
:100470009F5FC1F7FE2B880F911D9695879597F981
:10048000089597F99F6780E870E060E008959FEF16
:1004900080EC089500240A9416161706180609061B
:1004A000089500240A9412161306140605060895EA
:1004B000092E0394000C11F4882352F0BB0F40F472
:1004C000BF2B11F460FF04C06F5F7F4F8F4F9F4FB2
:0604D0000895F894FFCF2F
:0C04D60005000400070074656D70000054
:00000001FF
