S0150000746865726D6F5F636F75706C652E7372656399
S11300000C9434000C9451000C9451000C94510045
S11300100C9451000C9451000C9451000C94510018
S11300200C9451000C9451000C9451000C94510008
S11300300C9451000C9451000C9451000C945100F8
S11300400C9451000C9451000C9451000C945100E8
S11300500C9451005B005E006100640067006A005C
S11300606D0070007300760011241FBECFE5D4E04C
S1130070DEBFCDBF10E0A0E6B0E0ECE7F5E002C0E3
S113008005900D92AC36B107D9F720E0ACE6B0E0AC
S113009001C01D92A437B207E1F70E9438010C9405
S11300A0BC020C9400008A30910518F5FC01E65D51
S11300B0FF4F0C94A20283E09FEF08958FE99FEF16
S11300C0089585E29FEF08958DE09FEF089589E9F3
S11300D09FEF089589E49FEF089581E49FEF0895C9
S11300E08FE19FEF089581E09FEF089589E09FEFEE
S11300F0089580E090E00895FC0188E08AB986E8DC
S113010080BD83E389B99081992339F031969CB9F4
S11301105D9BFECF91919111FACF2FE986E891E092
S1130120215080409040E1F700C0000008951092F3
S11301306D0010926C0020E030E0E4E6F0E041E075
S113014050E0A0E6B0E098B3BA01008002C0660FA8
S1130150771F0A94E2F7862F8095892388BB89EF5D
S113016090E00197F1F700C0000086B390E00C9096
S113017002C0959587950A94E2F780FF11C06091BB
S11301806C0070916D00CA01022E02C0880F991F85
S11301900A94E2F7862B972B90936D0080936C0062
S11301A068B3CA01008002C0880F991F0A94E2F75D
S11301B0862B88BB2F5F3F4F2830310521F6809175
S11301C06C0090916D0008950F931F93CF93DF936C
S11301D098B302E610E0C1E0D0E09E01F80100808F
S11301E002C0220F331F0A94E2F7822F80958923DD
S11301F088BB10927300109272000E9497001092B4
S11302007200809373000E949700209172003091D5
S11302107300822B932B909373008093720088B3A6
S1130220F801008002C0CC0FDD1F0A94E2F7C82B4E
S1130230C8BB609172007091730075956795759550
S11302406795759567957093730060937200072E98
S1130250000C880B990B0E94950120E030E040E8E7
S11302605EE30E94D001DF91CF911F910F91089519
S113027017BA27B381E090E0AC010090640002C09B
S1130280440F551F0A94E2F70090620002C0880FE1
S1130290991F0A94E2F7842B822B87BB8FEF8ABBCA
S11302A084BB86E690E00E947C00CC24C394D12CCD
S11302B00F2EFAE0EF2EF12CF02D2FE986E891E0D5
S11302C0215080409040E1F700C000000E94E4000B
S11302D060936E0070936F00809370009093710030
S11302E0CC2DDD2DCE01B7010E948E028C01CE01F2
S11302F0801B910BB7010E948E02CB010E94530018
S11303008BBBC8010E94530085BB9FE926E881E0AE
S1130310915020408040E1F700C000002196C4368F
S1130320D10501F7CACFE89409C097FB3EF4909534
S11303308095709561957F4F8F4F9F4F9923A9F0BA
S1130340F92F96E9BB279395F69587957795679549
S1130350B795F111F8CFFAF4BB0F11F460FF1BC08D
S11303606F5F7F4F8F4F9F4F16C0882311F096E920
S113037011C0772321F09EE8872F762F05C06623CE
S113038071F096E8862F70E060E02AF09A95660F87
S1130390771F881FDAF7880F9695879597F9089540
S11303A00E94E3010C9454020E94460238F00E9419
S11303B04D0220F0952311F00C943D020C9443025D
S11303C011240C9488020E94650270F3959FC1F376
S11303D0950F50E0551F629FF001729FBB27F00DEF
S11303E0B11D639FAA27F00DB11DAA1F649F662744
S11303F0B00DA11D661F829F2227B00DA11D621F93
S1130400739FB00DA11D621F839FA00D611D221F4C
S1130410749F3327A00D611D231F849F600D211D30
S1130420822F762F6A2F11249F5750409AF0F1F0B3
S113043088234AF0EE0FFF1FBB1F661F771F881F1C
S113044091505040A9F79E3F510580F00C943D0215
S11304500C9488025F3FE4F3983ED4F38695779535
S11304606795B795F795E7959F5FC1F7FE2B880FC2
S1130470911D9695879597F9089597F99F6780E858
S113048070E060E008959FEF80EC089500240A94E2
S11304901616170618060906089500240A9412165B
S11304A01306140605060895092E0394000C11F48E
S11304B0882352F0BB0F40F4BF2B11F460FF04C03B
S11304C06F5F7F4F8F4F9F4F089557FD9058440F94
S11304D0551F59F05F3F71F04795880F97FB991F9F
S11304E061F09F3F79F0879508951216130614065C
S11304F0551FF2CF4695F1DF08C0161617061806E9
S1130500991FF1CF86957105610508940895E894C3
S1130510BB2766277727CB0197F9089597FB072E0A
S113052016F4009407D077FD09D00E94A80207FCB6
S113053005D03EF4909581959F4F089570956195EF
S11305407F4F0895EE0FFF1F0590F491E02D09945D
S1130550AA1BBB1B51E107C0AA1FBB1FA617B707E5
S113056010F0A61BB70B881F991F5A95A9F7809501
S10F05709095BC01CD010895F894FFCFD4
S10F057C05000400070074656D700000A9
S9030000FC
